:020000040800F2
:10000000800A00208901000845040008F103000867
:1000100041040008B9020008D50E000800000000E5
:10002000000000000000000000000000850D000836
:10003000BD02000800000000630D0008710E0008FA
:10004000A3010008A3010008A3010008A301000800
:10005000A3010008A3010008A3010008A3010008F0
:10006000A3010008A3010008A3010008A3010008E0
:10007000A3010008A3010008A3010008A3010008D0
:10008000A3010008A3010008A3010008A3010008C0
:10009000A3010008A3010008A3010008A3010008B0
:1000A000A3010008A3010008A3010008A3010008A0
:1000B000A3010008A3010008A3010008A301000890
:1000C000A3010008A3010008A3010008A301000880
:1000D000A3010008A3010008A3010008A301000870
:1000E000A3010008A3010008A301000800F002F822
:1000F00000F03AF80AA090E8000C82448344AAF188
:100100000107DA4501D100F02FF8AFF2090EBAE885
:100110000F0013F0010F18BFFB1A43F0010318473B
:100120009C1A0000BC1A0000103A24BF78C878C19D
:10013000FAD8520724BF30C830C144BF04680C60ED
:10014000704700000023002400250026103A28BF35
:1001500078C1FBD8520728BF30C148BF0B60704739
:100160001FB51FBD10B510BD00F078F81146FFF7A0
:10017000F7FF00F0D9FE00F096F803B4FFF7F2FFA6
:1001800003BC00F0A9FE0000094880470948004769
:10019000FEE7FEE7FEE7FEE7FEE7FEE7FEE7FEE737
:1001A000FEE7FEE704480549054A064B7047000094
:1001B000750E0008ED00000880040020800A002071
:1001C0008006002080060020704700004FF0013CB0
:1001D00050F8042B51F8043B9A4221D1A2EB0C03B6
:1001E000934313EACC1317D150F8042B51F8043B76
:1001F0009A4215D1A2EB0C03934313EACC130BD113
:1002000050F8042B51F8043B9A4209D1A2EB0C039D
:10021000934313EACC13DBD04FF00000704700BFCC
:10022000D01A01BAB1FA81F101F0180122FA01F0F5
:10023000CB40C1F12001DBB2C0B2C01A2CFA01F3ED
:10024000D11A914311EAC311E6D170477047704744
:100250007047704700487047200400207546FFF73C
:10026000F9FFAE4605006946534620F00700854673
:1002700018B020B5FFF796FFBDE820404FF000060C
:100280004FF000074FF000084FF0000B21F007017E
:10029000AC46ACE8C009ACE8C009ACE8C009ACE8C1
:1002A000C0098D46704710B50446AFF30080204664
:1002B000BDE81040FFF761BF00BFFEE770472DE9C2
:1002C000F0410246002500260020002300240027DC
:1002D00091F803C00CF00F0591F803C00CF0100C5E
:1002E000BCF1000F03D091F802C04CEA050591F86B
:1002F00000C0BCF1000F31D0146800202BE04FF09B
:10030000010C0CFA00F3B1F800C00CEA03069E429F
:1003100020D183004FF00F0C0CFA03F7BC4305FA11
:1003200003FC4CEA040491F803C0BCF1280F06D189
:100330004FF0010C0CFA00FCC2F814C00AE091F86E
:1003400003C0BCF1480F05D14FF0010C0CFA00FCC2
:10035000C2F810C0401C0828D1D31460B1F800C006
:10036000BCF1FF0F34DD546800202EE000F1080CD2
:100370004FF0010808FA0CF3B1F800C00CEA0306CC
:100380009E4221D183004FF00F0C0CFA03F7BC43BF
:1003900005FA03FC4CEA040491F803C0BCF1280FF1
:1003A00005D100F1080C08FA0CF8C2F8148091F895
:1003B00003C0BCF1480F07D100F1080C4FF0010851
:1003C00008FA0CF8C2F81080401C0828CED35460FC
:1003D000BDE8F0810246002093680B400BB101207C
:1003E00000E0002070470AB1016100E04161704700
:1003F00000BFFEE708B501210C2000F0B3FC482047
:100400008DF803004FF40060ADF8000003208DF874
:10041000020069460848FFF752FF48208DF80300A4
:100420001020ADF8000003208DF802006946034853
:10043000FFF745FF08BD0000000C01400008014027
:1004400000BFFEE77047000010B500F08FF80020F5
:1004500000F050F905221449302000F031F905224E
:1004600012492A2000F02CF90F21202000F060F919
:100470000121212000F05CF90021252000F058F92D
:100480002021312000F054F90121222000F050F900
:100490001A21242000F04CF9FF21E22000F048F955
:1004A000012000F027F910BD1400002019000020E1
:1004B0002DE9F04107460D461646002000F024F9CC
:1004C000384600F0ABF8002405E0FF2000F0A6F865
:1004D0002855601CC4B2B442F7DB012000F014F9C7
:1004E000BDE8F08110B502210148FFF773FF10BD90
:1004F000000C014010B540210148FFF76BFF10BD13
:100500000008014070B50446002000F0FDF82046C8
:1005100000F084F8FF2000F081F80546012000F08B
:10052000F3F8284670BD70B5044600260720FFF793
:10053000E9FF054605F04000A8B16020FFF7E2FFA3
:100540000646324621466120FFF7B2FFFF21E22036
:1005500000F0EEF82946272000F0EAF8642000F0C9
:10056000BDFC304670BD0020FCE7000008B501214D
:100570000C2000F0F7FB2020ADF8000010208DF8D3
:10058000030003208DF8020069462248FFF797FE1A
:100590004020ADF8000048208DF8030003208DF8BE
:1005A000020069461B48FFF78AFE8020ADF8000074
:1005B00010208DF8030003208DF8020069461548CD
:1005C000FFF77DFE1020ADF800008DF8030003203A
:1005D0008DF8020069460F48FFF771FE0120ADF863
:1005E000000010208DF8030003208DF802006946FA
:1005F0000948FFF764FE0220ADF8000048208DF89E
:10060000030003208DF8020069460348FFF757FEF8
:1006100008BD000000080140000C014070B505460F
:100620000026002414E08021214101EA050000F0A9
:1006300075F8012000F08CF8FFF75CFF012802D16B
:10064000802020410643002000F082F8601CC4B2E4
:10065000082CE8DB304670BD2DE9F04106460F4618
:100660003A463146A02000F02BF8002000F042F876
:100670000E21202000F05CF8012000F03BF800BFC4
:10068000FFF730FF0128FBD00720FFF73BFF0446B0
:1006900004F0100048B1FF21E12000F049F82146A4
:1006A000272000F045F8012507E004F0200020B1E4
:1006B0002146272000F03CF800252846BDE8F081BF
:1006C0002DE9F04107460D461646002000F01CF8C3
:1006D0003846FFF7A3FF002404E0285DFFF79EFFE4
:1006E000601CC4B2B442F8DB012000F00DF8BDE894
:1006F000F081000010B50446224601210148FFF7B1
:1007000072FE10BD000C014010B5044622461021B7
:100710000148FFF768FE10BD0008014010B504460F
:10072000224680210148FFF75EFE10BD000801400F
:1007300070B505460C460020FFF7E6FF2846FFF798
:100740006DFF2046FFF76AFF0120FFF7DDFF70BD58
:1007500010B50446224620210148FFF744FE10BD93
:100760000008014000200CE0002106E00022064BBA
:1007700003EBC0135A544A1CD1B28029F6DB421C49
:10078000D0B20828F0DB7047200000202DE9F043AC
:1007900004460D4616461F46284638E0224631E0FC
:1007A000002A2DDB7F2A2BDC002829DB3F2827DCD1
:1007B0004FEAE07C00EB5C7C4FEAEC0CDFF8588001
:1007C00008EBCC1C1CF802C003464FEAE07800EBB3
:1007D00058784FEAE808A0EBC8094FF0010808FA7A
:1007E00009F82CEA080C01464FEAE07800EB58784B
:1007F0004FEAE808DFF8209009EBC81808F802C0B3
:10080000511C0AB2A1199142CADC411C08B2E91973
:100810008142C3DCBDE8F0832000002038B500240D
:1008200006E0002500E06D1CB5F57A7FFBD3641C63
:10083000B4F57A7FF5D30121082000F093FA142053
:100840008DF8030003208DF802004FF48070ADF89E
:10085000000069460848FFF732FD4FF40070ADF81C
:10086000000069460448FFF72AFD012000F03AFA2B
:10087000012000F043FA38BD000C014070B5054678
:10088000002411E080212141294009B1012100E02B
:100890000021084600F032FA012000F023FA00207F
:1008A00000F020FA601CC4B2082CEBDB012000F041
:1008B00019FA002000F016FA70BD10B5012000F002
:1008C0001DFA012000F00EFA002000F017FA0020B7
:1008D00000F008FA10BD10B5002000F00FFA01205A
:1008E00000F000FA012000F009FA10BD10B5FFF782
:1008F00095FFAE2000F00EFAD52000F00BFA802014
:1009000000F008FAA82000F005FA3F2000F002FAF3
:10091000D32000F0FFF9002000F0FCF9402000F0A7
:10092000F9F9A12000F0F6F9C82000F0F3F9DA2077
:1009300000F0F0F9122000F0EDF9812000F0EAF962
:10094000CF2000F0E7F9D92000F0E4F9F12000F021
:10095000E1F9DB2000F0DEF9302000F0DBF9A42023
:1009600000F0D8F9A62000F0D5F98D2000F0D2F9DA
:10097000142000F0CFF9AF2000F0CCF9FFF7F2FE21
:1009800000F09CF910BD70B505460C4645F0B0006E
:1009900000F0C0F9102141EA141000F0BBF904F096
:1009A0000F0000F0B7F970BDF8B506460F461446C3
:1009B0001D46082D0CD1A4F120000E4901EB0010BA
:1009C0001023082239460090304600F017F80FE057
:1009D000062D0DD1A4F1200000EB4000064901EBEB
:1009E00040000823062239460090304600F006F801
:1009F000F8BD0000B00F0008A01500082DE9FF4F5A
:100A000080460E469146DDF834B0002500244A4663
:100A100031464046039BFFF7B9FE00BF5EE000256C
:100A200058E008EB0500002852DB08EB05007F28A2
:100A30004EDC3046F11706EB5171C9100FB2F117B9
:100A400006EB5171C910A6EBC10A002E05DA781E1B
:100A500007B20AF108000FFA80FA3819002817DBEC
:100A60003819072814DC3819224901EBC01008EBAB
:100A70000501405C04FB09511BF8011001FA0AF161
:100A8000084339191B4A02EBC11108EB05028854CF
:100A90003819401C00281BDB3819401C072817DCBC
:100AA0003819401C134901EBC01008EB0501405CEC
:100AB00004FB09511BF80110CAF108021141084357
:100AC0003919491C0B4A02EBC11108EB0502885485
:100AD000681CC5B24D45A4DB601CC4B20399481E16
:100AE000C11700EB5171012202EBE101A14296DC3A
:100AF000BDE8FF8F200000202DE9FE4F07468A4603
:100B0000144698460025AB460026CBE0605D00F019
:100B1000800058B94FF0010B2846691C8DB2205C4B
:100B20008DF8040000208DF805006BE0605D00F09A
:100B3000E000C02814D14FF0020B2846691C8DB28A
:100B4000205C8DF80400605D00B9AFE02846691CA8
:100B50008DB2205C8DF8050000208DF8060051E074
:100B6000605D00F0F000E0281DD14FF0030B284637
:100B7000691C8DB2205C8DF80400605D00B995E0C1
:100B80002846691C8DB2205C8DF80500605D00B9B7
:100B90008CE02846691C8DB2205C8DF80600002090
:100BA0008DF807002EE0605D00F0F800F02826D1F7
:100BB0004FF0040B2846691C8DB2205C8DF80400B0
:100BC000605D00B972E02846691C8DB2205C8DF82A
:100BD0000500605D00B969E02846691C8DB2205CA3
:100BE0008DF80600605D00B960E02846691C8DB292
:100BF000205C8DF8070000208DF8080002E0681CDA
:100C000085B24FE0BBF1010F0BD19DF80420B9195B
:100C100008B243465146FFF7C7FE06EB080086B20E
:100C20003FE04FF000090EE009EB890101EB4911AB
:100C3000204A881801A9FFF7C9FA00B90EE009F1A6
:100C400001001FFA80F909EB890101EB4911194AEA
:100C5000881819A1FFF7BAFA0028E5D100BFB8F14A
:100C6000080F12D109EB890000EB49101149084423
:100C7000401DB919009008B210231A465146FFF7DB
:100C8000BDFE06F1100086B20BE0B8F1060F08D1E8
:100C9000B91908B206233F225146FFF785FEB01D61
:100CA00086B200BF605D00287FF430AF00BFBDE8B2
:100CB000FE8F0000DA1700080000000010B50024C5
:100CC0000BE000212046FFF75EFE054901EBC41052
:100CD000802100F02FF8601CC4B2082CF1DB10BD9D
:100CE0002000002010B5044622464FF480710248CF
:100CF000FFF779FB10BD0000000C014010B5044661
:100D000022464FF400710248FFF76DFB10BD000052
:100D1000000C014010B50446FFF7CFFD7820FFF727
:100D2000ADFD0020FFF7AAFD2046FFF7A7FDFFF766
:100D3000D2FD10BD70B505460E46FFF7BEFD78200A
:100D4000FFF79CFD4020FFF799FD002404E0285D9B
:100D5000FFF794FD601CC4B2B442F8DBFFF7BBFDA3
:100D600070BD704729B1064A92690243044B9A61EB
:100D700004E0034A92698243014B9A617047000084
:100D800000100240704710B500F002F810BD0000DE
:100D90000CB50020019000903348006840F480308A
:100DA0003149086000BF3048006800F4003000900E
:100DB0000198401C0190009818B90198B0F5A06FF7
:100DC000F1D12948006800F4003010B101200090F2
:100DD00001E0002000900098012843D123480068DA
:100DE00040F01000214908600846006820F0030028
:100DF00008600846006840F0020008601A48406831
:100E0000194948600846406848600846406840F410
:100E1000806048600846406820F47C1048600846BE
:100E2000406840F4E81048600846006840F0807070
:100E3000086000BF0C48006800F000700028F9D07E
:100E40000948406820F003000749486008464068A8
:100E500040F00200486000BF0348406800F00C000A
:100E60000828F9D10CBD000000100240002002400B
:100E70007047000010B51348006840F001001149A8
:100E8000086008464068104908400E494860084616
:100E900000680E4908400B4908600846006820F4C5
:100EA000802008600846406820F4FE0048604FF447
:100EB0001F008860FFF767FF4FF00060044908607B
:100EC00010BD0000001002400000FFF8FFFFF6FE1A
:100ED00008ED00E000BFFEE700BF70470146114A81
:100EE00012784A434FF0E0235A6100229A611A4671
:100EF000126942F001021A6100BF4FF0E02210694E
:100F000000F001021AB100F48032002AF5D04FF04F
:100F1000E022126922F001024FF0E0231A61002260
:100F20009A61704710000020FFF7E0FCFFF78CFA91
:100F3000FFF718FCFFF75EFA26E00520134908705A
:100F4000084601781248FFF787FB124908700846E7
:100F5000007858B901201049087000200F49087026
:100F60000F48FFF7E0FA0D49087005E009480078DE
:100F7000012801D10B49087006230BA20021084665
:100F8000FFF7BAFDFFF79AFED7E700000500002043
:100F9000000000200D0000200C00002007000020B1
:100FA0000600002009000020206F6B2020000000B8
:100FB0000000000000000000000000000000000031
:100FC000000000F8000000000000003330000000C6
:100FD00000100C06100C06000000000000000000CD
:100FE00040C07840C0784000043F04043F0404003F
:100FF000007088FC08300000001820FF211E00004F
:10100000F008F000E018000000211C031E211E0063
:1010100000F00888700000001E21232419272110E9
:1010200010160E000000000000000000000000008C
:10103000000000E018040200000000071820400033
:1010400000020418E0000000004020180700000023
:10105000404080F0804040000202010F0102020087
:10106000000000F0000000000101011F010101006B
:10107000000000000000000080B0700000000000D0
:101080000000000000000000000101010101010159
:1010900000000000000000000030300000000000F0
:1010A00000000000806018040060180601000000C5
:1010B00000E010080810E000000F102020100F00C2
:1010C000001010F8000000000020203F2020000049
:1010D00000700808088870000030282422213000A1
:1010E00000300888884830000018202020110E00A9
:1010F0000000C02010F8000000070424243F240052
:1011000000F80888880808000019212020110E0026
:1011100000E0108888180000000F112020110E0038
:1011200000380808C83808000000003F0000000030
:101130000070880808887000001C222121221C00F1
:1011400000E010080810E0000000312222110F001A
:10115000000000C0C00000000000003030000000AF
:10116000000000800000000000008060000000001F
:101170000000804020100800000102040810200038
:101180004040404040404000040404040404040083
:101190000008102040800000002010080402010018
:1011A000007048080808F000000000303601000018
:1011B000C030C828E810E0000718272423140B00CB
:1011C0000000C038E0000000203C23020227382045
:1011D00008F8888888700000203F202020110E0029
:1011E000C030080808083800071820202010080020
:1011F00008F808080810E000203F202020100F0009
:1012000008F88888E8081000203F202023201800D4
:1012100008F88888E8081000203F2000030000003C
:10122000C03008080838000007182020221E0200DD
:1012300008F808000008F808203F210101213F209C
:10124000000808F8080800000020203F20200000C7
:1012500000000808F8080800C08080807F000000B7
:1012600008F888C028180800203F200126382000F0
:1012700008F8080000000000203F20202020300057
:1012800008F8F800F8F80800203F003F003F200071
:1012900008F830C00008F808203F200007183F0079
:1012A000E01008080810E0000F10202020100F00A8
:1012B00008F808080808F000203F2101010100009B
:1012C000E01008080810E0000F18242438504F00E0
:1012D00008F8888888887000203F2000030C3020A0
:1012E00000708808080838000038202121221C00DE
:1012F000180808F8080818000000203F2000000027
:1013000008F808000008F808001F202020201F000F
:101310000878880000C83808000007380E0100006F
:10132000F80800F80008F800033C0700073C030039
:10133000081868808068180820302C03032C30209F
:101340000838C800C83808000000203F200000000E
:1013500010080808C8380800203826212020180066
:10136000000000FE020202000000007F404040003A
:10137000000C30C000000000000000010638C00072
:1013800000020202FE000000004040407F0000001A
:10139000000004020202040000000000000000003F
:1013A000000000000000000080808080808080803D
:1013B0000002020400000000000000000000000025
:1013C00000008080808000000019242222223F201B
:1013D00008F8008080000000003F112020110E005E
:1013E0000000008080800000000E112020201100ED
:1013F000000000808088F800000E112020103F209F
:101400000000808080800000001F22222222130022
:10141000008080F0888888180020203F202000006D
:101420000000808080808000006B94949493600022
:1014300008F8008080800000203F210000203F202D
:1014400000809898000000000020203F202000002D
:10145000000000809898000000C08080807F00001D
:1014600008F8000080808000203F24022D302000FA
:10147000000808F8000000000020203F20200000A5
:101480008080808080808000203F20003F20003FBF
:101490008080008080800000203F210000203F20CD
:1014A0000000808080800000001F202020201F007E
:1014B000808000808000000080FFA12020110E00AD
:1014C0000000008080808000000E112020A0FF809E
:1014D000808080008080800020203F21200001004B
:1014E00000008080808080000033242424241900A0
:1014F000008080E0808000000000001F20200000AD
:101500008080000000808000001F202020103F20ED
:10151000808080000080808000010E30080601007D
:1015200080800080008080800F300C030C300F0022
:1015300000808000808080000020312E0E3120004D
:10154000808080000080808080818E70180601007D
:1015500000808080808080000021302C222130009B
:1015600000000000807C020200000000003F4040BC
:1015700000000000FF00000000000000FF0000006D
:101580000002027C800000000040403F000000009C
:101590000006010102020404000000000000000037
:1015A0000000000000000000002F00000000070005
:1015B000070000147F147F1400242A7F2A120023BE
:1015C00013086462003649552250000000070000ED
:1015D00000001C224100000041221C000014083EB3
:1015E00008140008083E0808000000A06000000879
:1015F00008080808000060600000002010080402CD
:10160000003E5149453E0000427F4000004261518A
:101610004946002141454B31001814127F10002724
:1016200045454539003C4A494930000171090503E7
:1016300000364949493600064949291E0000363618
:10164000000000005636000000081422410000147B
:101650001414141400004122140800020151090658
:10166000003E4955592E007C1211127C007F4949D9
:101670004936003E41414122007F4141221C007F0A
:1016800049494941007F09090901003E4149497A18
:10169000007F0808087F0000417F41000020404192
:1016A0003F01007F08142241007F40404040007FFE
:1016B000020C027F007F0408107F003E4141413E42
:1016C000007F09090906003E4151215E007F09198A
:1016D00029460046494949310001017F0101003F87
:1016E0004040403F001F2040201F003F4038403F07
:1016F000006314081463000708700807006151496B
:10170000454300007F414100000204081020000012
:1017100041417F000004020102040040404040407B
:10172000000001020400002054545478007F484413
:10173000443800384444442000384444487F00384A
:101740005454541800087E0901020018A4A4A47C73
:10175000007F080404780000447D4000004080843D
:101760007D00007F102844000000417F4000007C85
:1017700004180478007C0804047800384444443891
:1017800000FC242424180018242418FC007C0804DD
:10179000040800485454542000043F444020003CB6
:1017A0004040207C001C2040201C003C4030403C3D
:1017B000004428102844001CA0A0A07C00446454CD
:1017C0004C440000087F41000000007F0000000042
:1017D000417F0800000804081008E9A38E000000FB
:1017E00000FE021222C202C23202FE00000000808D
:1017F000601F0020100C030C30000F3040F800E692
:10180000898700000000FC24242425262424242485
:10181000243C000040300F211549817F00211549EB
:10182000817F0000E68EA70000101010FF90209826
:101830004828090E2848A818000242817F0040402D
:101840004242427E4242424000E588B6000040509B
:101850004E4848FF48484840F80000FF000000009C
:101860003E0202FF12221E000F40807F0000E69120
:10187000870000101010FF900094644454E242630B
:101880005A00000242817F0000027A42427F4242B7
:10189000FA0200E69D8600001010D0FF90108082B2
:1018A0008282FE8282828000040300FF0003000027
:1018B0000000FF0000000000E695B00000905234E8
:1018C00010FF10345280708F0808F80800829A5672
:1018D0006322528E008040330C33408000E68DAE90
:1018E00000001010FF109000FE929292F292929ED1
:1018F000800042827F0180601F00FC44474444FC1A
:101900000000E697B6000000FC848484FC00101000
:10191000101010FF101000003F1010103F000001C9
:101920000640807F000000E9929F000020102CE715
:10193000242400F01010FF1010F000000101017FBE
:10194000211100070202FF0202070000E99FB30015
:101950000040404444546445464464544444404038
:1019600000000000FF49494949494949FF0000007A
:1019700000E4B99000000000E09C848484F482823A
:10198000838280800000002010080640807F0000D5
:10199000020408300000E8AEBE0000404042CC0027
:1019A00040A09E8282829EA02020000000003F90E6
:1019B0008840432C10284641808000E7BDAE0000DF
:1019C000001715D55557557D555755D51517000096
:1019D0004040407F555555555555557F4040400036
:1019E000E58D9500000000F8494A4C48F8484C4AFB
:1019F00049F800000010101312121212FF121212F6
:101A00001213101000E6ACA1000000020C806080F0
:101A100040300FC808082818000002027E018040EC
:101A200020180601061820408000E6ADA500004001
:101A300040407C404040FF44444444444040008097
:101A40009088464040202F1010080402000000E952
:101A500095BF000080808080FF8080A09088848275
:101A60008080800000000000FF4021120408102048
:101A700020404000E8A79200002010E824272424FA
:101A8000E424342C20E000000080601F09090909CB
:101A90007F090949897F000000E5BAA6000000001F
:101AA000FC242424FC252624FC2424240400403087
:101AB0008F80844C55252525554C80808000E980F9
:101AC0009F0000404042CC0004F49494FF9494F4AE
:101AD0000400000040201F20484442415F4142442E
:101AE000484000E5BAA600000000FC242424FC25A0
:101AF0002624FC242424040040308F80844C552567
:101B00002525554C80808000E6978B00001010F151
:101B100096909010282724E42424E4040080601F79
:101B200040807F80601F207F4444444000E8BDAC7B
:101B30000000C8B88FE88888404848E85F484848AF
:101B40004000081808FF040400020B1222D20A0603
:101B50000000E696B900000808080808F8898E8891
:101B60008888880808080000804020180700004086
:101B700080403F00000000E59091000000F8080858
:101B80000CCA494848C8080808F8000000FF0000CF
:101B9000001F0808081F0040807F0000FF018181AE
:101BA00081FD8991A1C1FD81818101FFFF8080803C
:101BB000809F888482819F80808080FFDC1B00085A
:101BC000000000202000000028010008FC1B000885
:101BD00020000020600A0000440100081122334464
:101BE00055000000000000000000000000000000A0
:0C1BF000F0F0F0F0F0F0F0F0F0F0000089
:040000050800018965
:00000001FF
